{
  "_format": "hh-sol-artifact-1",
  "contractName": "Dappazon",
  "sourceName": "contracts/Dappazon.sol",
  "abi": [
    {
      "inputs": [],
      "stateMutability": "nonpayable",
      "type": "constructor"
    },
    {
      "anonymous": false,
      "inputs": [
        {
          "indexed": false,
          "internalType": "address",
          "name": "buyer",
          "type": "address"
        },
        {
          "indexed": false,
          "internalType": "uint256",
          "name": "orderId",
          "type": "uint256"
        },
        {
          "indexed": false,
          "internalType": "uint256",
          "name": "itemId",
          "type": "uint256"
        }
      ],
      "name": "Buy",
      "type": "event"
    },
    {
      "anonymous": false,
      "inputs": [
        {
          "indexed": false,
          "internalType": "string",
          "name": "name",
          "type": "string"
        },
        {
          "indexed": false,
          "internalType": "uint256",
          "name": "cost",
          "type": "uint256"
        },
        {
          "indexed": false,
          "internalType": "uint256",
          "name": "quantity",
          "type": "uint256"
        }
      ],
      "name": "List",
      "type": "event"
    },
    {
      "inputs": [
        {
          "internalType": "uint256",
          "name": "_id",
          "type": "uint256"
        }
      ],
      "name": "buy",
      "outputs": [],
      "stateMutability": "payable",
      "type": "function"
    },
    {
      "inputs": [
        {
          "internalType": "uint256",
          "name": "",
          "type": "uint256"
        }
      ],
      "name": "items",
      "outputs": [
        {
          "internalType": "uint256",
          "name": "id",
          "type": "uint256"
        },
        {
          "internalType": "string",
          "name": "name",
          "type": "string"
        },
        {
          "internalType": "string",
          "name": "category",
          "type": "string"
        },
        {
          "internalType": "string",
          "name": "image",
          "type": "string"
        },
        {
          "internalType": "uint256",
          "name": "rating",
          "type": "uint256"
        },
        {
          "internalType": "uint256",
          "name": "price",
          "type": "uint256"
        },
        {
          "internalType": "uint256",
          "name": "stock",
          "type": "uint256"
        }
      ],
      "stateMutability": "view",
      "type": "function"
    },
    {
      "inputs": [
        {
          "internalType": "uint256",
          "name": "_id",
          "type": "uint256"
        },
        {
          "internalType": "string",
          "name": "_name",
          "type": "string"
        },
        {
          "internalType": "string",
          "name": "_category",
          "type": "string"
        },
        {
          "internalType": "string",
          "name": "_image",
          "type": "string"
        },
        {
          "internalType": "uint256",
          "name": "_rating",
          "type": "uint256"
        },
        {
          "internalType": "uint256",
          "name": "_price",
          "type": "uint256"
        },
        {
          "internalType": "uint256",
          "name": "_stock",
          "type": "uint256"
        }
      ],
      "name": "list",
      "outputs": [],
      "stateMutability": "nonpayable",
      "type": "function"
    },
    {
      "inputs": [],
      "name": "name",
      "outputs": [
        {
          "internalType": "string",
          "name": "",
          "type": "string"
        }
      ],
      "stateMutability": "view",
      "type": "function"
    },
    {
      "inputs": [
        {
          "internalType": "address",
          "name": "",
          "type": "address"
        }
      ],
      "name": "orderCount",
      "outputs": [
        {
          "internalType": "uint256",
          "name": "",
          "type": "uint256"
        }
      ],
      "stateMutability": "view",
      "type": "function"
    },
    {
      "inputs": [
        {
          "internalType": "address",
          "name": "",
          "type": "address"
        },
        {
          "internalType": "uint256",
          "name": "",
          "type": "uint256"
        }
      ],
      "name": "orders",
      "outputs": [
        {
          "internalType": "uint256",
          "name": "time",
          "type": "uint256"
        },
        {
          "components": [
            {
              "internalType": "uint256",
              "name": "id",
              "type": "uint256"
            },
            {
              "internalType": "string",
              "name": "name",
              "type": "string"
            },
            {
              "internalType": "string",
              "name": "category",
              "type": "string"
            },
            {
              "internalType": "string",
              "name": "image",
              "type": "string"
            },
            {
              "internalType": "uint256",
              "name": "rating",
              "type": "uint256"
            },
            {
              "internalType": "uint256",
              "name": "price",
              "type": "uint256"
            },
            {
              "internalType": "uint256",
              "name": "stock",
              "type": "uint256"
            }
          ],
          "internalType": "struct Dappazon.Item",
          "name": "item",
          "type": "tuple"
        }
      ],
      "stateMutability": "view",
      "type": "function"
    },
    {
      "inputs": [],
      "name": "owner",
      "outputs": [
        {
          "internalType": "address",
          "name": "",
          "type": "address"
        }
      ],
      "stateMutability": "view",
      "type": "function"
    },
    {
      "inputs": [],
      "name": "withdraw",
      "outputs": [],
      "stateMutability": "nonpayable",
      "type": "function"
    }
  ],
  "bytecode": "0x608060405234801561001057600080fd5b506040518060400160405280600881526020017f44617070617a6f6e0000000000000000000000000000000000000000000000008152506003908161005591906102ec565b5033600460006101000a81548173ffffffffffffffffffffffffffffffffffffffff021916908373ffffffffffffffffffffffffffffffffffffffff1602179055506103be565b600081519050919050565b7f4e487b7100000000000000000000000000000000000000000000000000000000600052604160045260246000fd5b7f4e487b7100000000000000000000000000000000000000000000000000000000600052602260045260246000fd5b6000600282049050600182168061011d57607f821691505b6020821081036101305761012f6100d6565b5b50919050565b60008190508160005260206000209050919050565b60006020601f8301049050919050565b600082821b905092915050565b6000600883026101987fffffffffffffffffffffffffffffffffffffffffffffffffffffffffffffffff8261015b565b6101a2868361015b565b95508019841693508086168417925050509392505050565b6000819050919050565b6000819050919050565b60006101e96101e46101df846101ba565b6101c4565b6101ba565b9050919050565b6000819050919050565b610203836101ce565b61021761020f826101f0565b848454610168565b825550505050565b600090565b61022c61021f565b6102378184846101fa565b505050565b5b8181101561025b57610250600082610224565b60018101905061023d565b5050565b601f8211156102a05761027181610136565b61027a8461014b565b81016020851015610289578190505b61029d6102958561014b565b83018261023c565b50505b505050565b600082821c905092915050565b60006102c3600019846008026102a5565b1980831691505092915050565b60006102dc83836102b2565b9150826002028217905092915050565b6102f58261009c565b67ffffffffffffffff81111561030e5761030d6100a7565b5b6103188254610105565b61032382828561025f565b600060209050601f8311600181146103565760008415610344578287015190505b61034e85826102d0565b8655506103b6565b601f19841661036486610136565b60005b8281101561038c57848901518255600182019150602085019450602081019050610367565b868310156103a957848901516103a5601f8916826102b2565b8355505b6001600288020188555050505b505050505050565b6117ec806103cd6000396000f3fe60806040526004361061007b5760003560e01c80638da5cb5b1161004e5780638da5cb5b1461013d578063bfb231d214610168578063d96a094a146101ab578063eea8a7e8146101c75761007b565b806306fdde03146100805780633ccfd60b146100ab578063713d856b146100c2578063793b8c6d146100ff575b600080fd5b34801561008c57600080fd5b506100956101f0565b6040516100a29190610dd8565b60405180910390f35b3480156100b757600080fd5b506100c061027e565b005b3480156100ce57600080fd5b506100e960048036038101906100e49190610e6c565b610373565b6040516100f69190610eb2565b60405180910390f35b34801561010b57600080fd5b5061012660048036038101906101219190610ef9565b61038b565b60405161013492919061103c565b60405180910390f35b34801561014957600080fd5b506101526105a4565b60405161015f919061107b565b60405180910390f35b34801561017457600080fd5b5061018f600480360381019061018a9190611096565b6105ca565b6040516101a297969594939291906110c3565b60405180910390f35b6101c560048036038101906101c09190611096565b6107a4565b005b3480156101d357600080fd5b506101ee60048036038101906101e9919061127c565b610bf2565b005b600380546101fd906113a1565b80601f0160208091040260200160405190810160405280929190818152602001828054610229906113a1565b80156102765780601f1061024b57610100808354040283529160200191610276565b820191906000526020600020905b81548152906001019060200180831161025957829003601f168201915b505050505081565b600460009054906101000a900473ffffffffffffffffffffffffffffffffffffffff1673ffffffffffffffffffffffffffffffffffffffff163373ffffffffffffffffffffffffffffffffffffffff16146102d857600080fd5b6000600460009054906101000a900473ffffffffffffffffffffffffffffffffffffffff1673ffffffffffffffffffffffffffffffffffffffff164760405161032090611403565b60006040518083038185875af1925050503d806000811461035d576040519150601f19603f3d011682016040523d82523d6000602084013e610362565b606091505b505090508061037057600080fd5b50565b60016020528060005260406000206000915090505481565b600260205281600052604060002060205280600052604060002060009150915050806000015490806001016040518060e0016040529081600082015481526020016001820180546103db906113a1565b80601f0160208091040260200160405190810160405280929190818152602001828054610407906113a1565b80156104545780601f1061042957610100808354040283529160200191610454565b820191906000526020600020905b81548152906001019060200180831161043757829003601f168201915b5050505050815260200160028201805461046d906113a1565b80601f0160208091040260200160405190810160405280929190818152602001828054610499906113a1565b80156104e65780601f106104bb576101008083540402835291602001916104e6565b820191906000526020600020905b8154815290600101906020018083116104c957829003601f168201915b505050505081526020016003820180546104ff906113a1565b80601f016020809104026020016040519081016040528092919081815260200182805461052b906113a1565b80156105785780601f1061054d57610100808354040283529160200191610578565b820191906000526020600020905b81548152906001019060200180831161055b57829003601f168201915b505050505081526020016004820154815260200160058201548152602001600682015481525050905082565b600460009054906101000a900473ffffffffffffffffffffffffffffffffffffffff1681565b60006020528060005260406000206000915090508060000154908060010180546105f3906113a1565b80601f016020809104026020016040519081016040528092919081815260200182805461061f906113a1565b801561066c5780601f106106415761010080835404028352916020019161066c565b820191906000526020600020905b81548152906001019060200180831161064f57829003601f168201915b505050505090806002018054610681906113a1565b80601f01602080910402602001604051908101604052809291908181526020018280546106ad906113a1565b80156106fa5780601f106106cf576101008083540402835291602001916106fa565b820191906000526020600020905b8154815290600101906020018083116106dd57829003601f168201915b50505050509080600301805461070f906113a1565b80601f016020809104026020016040519081016040528092919081815260200182805461073b906113a1565b80156107885780601f1061075d57610100808354040283529160200191610788565b820191906000526020600020905b81548152906001019060200180831161076b57829003601f168201915b5050505050908060040154908060050154908060060154905087565b60008060008381526020019081526020016000206040518060e0016040529081600082015481526020016001820180546107dd906113a1565b80601f0160208091040260200160405190810160405280929190818152602001828054610809906113a1565b80156108565780601f1061082b57610100808354040283529160200191610856565b820191906000526020600020905b81548152906001019060200180831161083957829003601f168201915b5050505050815260200160028201805461086f906113a1565b80601f016020809104026020016040519081016040528092919081815260200182805461089b906113a1565b80156108e85780601f106108bd576101008083540402835291602001916108e8565b820191906000526020600020905b8154815290600101906020018083116108cb57829003601f168201915b50505050508152602001600382018054610901906113a1565b80601f016020809104026020016040519081016040528092919081815260200182805461092d906113a1565b801561097a5780601f1061094f5761010080835404028352916020019161097a565b820191906000526020600020905b81548152906001019060200180831161095d57829003601f168201915b50505050508152602001600482015481526020016005820154815260200160068201548152505090508060a001513410156109b457600080fd5b60008160c00151116109c557600080fd5b60006040518060400160405280428152602001838152509050600160003373ffffffffffffffffffffffffffffffffffffffff1673ffffffffffffffffffffffffffffffffffffffff1681526020019081526020016000206000815480929190610a2e90611447565b919050555080600260003373ffffffffffffffffffffffffffffffffffffffff1673ffffffffffffffffffffffffffffffffffffffff1681526020019081526020016000206000600160003373ffffffffffffffffffffffffffffffffffffffff1673ffffffffffffffffffffffffffffffffffffffff16815260200190815260200160002054815260200190815260200160002060008201518160000155602082015181600101600082015181600001556020820151816001019081610af5919061163b565b506040820151816002019081610b0b919061163b565b506060820151816003019081610b21919061163b565b506080820151816004015560a0820151816005015560c08201518160060155505090505060018260c00151610b56919061170d565b600080858152602001908152602001600020600601819055507f1cbc5ab135991bd2b6a4b034a04aa2aa086dac1371cb9b16b8b5e2ed6b036bed33600160003373ffffffffffffffffffffffffffffffffffffffff1673ffffffffffffffffffffffffffffffffffffffff168152602001908152602001600020548460000151604051610be593929190611741565b60405180910390a1505050565b600460009054906101000a900473ffffffffffffffffffffffffffffffffffffffff1673ffffffffffffffffffffffffffffffffffffffff163373ffffffffffffffffffffffffffffffffffffffff1614610c4c57600080fd5b60006040518060e00160405280898152602001888152602001878152602001868152602001858152602001848152602001838152509050806000808a8152602001908152602001600020600082015181600001556020820151816001019081610cb5919061163b565b506040820151816002019081610ccb919061163b565b506060820151816003019081610ce1919061163b565b506080820151816004015560a0820151816005015560c082015181600601559050507ffdbe2a012c10ec01592653978eaa09b5ca60b143a0e617505b2ebcbd911ec5b8878484604051610d3693929190611778565b60405180910390a15050505050505050565b600081519050919050565b600082825260208201905092915050565b60005b83811015610d82578082015181840152602081019050610d67565b60008484015250505050565b6000601f19601f8301169050919050565b6000610daa82610d48565b610db48185610d53565b9350610dc4818560208601610d64565b610dcd81610d8e565b840191505092915050565b60006020820190508181036000830152610df28184610d9f565b905092915050565b6000604051905090565b600080fd5b600080fd5b600073ffffffffffffffffffffffffffffffffffffffff82169050919050565b6000610e3982610e0e565b9050919050565b610e4981610e2e565b8114610e5457600080fd5b50565b600081359050610e6681610e40565b92915050565b600060208284031215610e8257610e81610e04565b5b6000610e9084828501610e57565b91505092915050565b6000819050919050565b610eac81610e99565b82525050565b6000602082019050610ec76000830184610ea3565b92915050565b610ed681610e99565b8114610ee157600080fd5b50565b600081359050610ef381610ecd565b92915050565b60008060408385031215610f1057610f0f610e04565b5b6000610f1e85828601610e57565b9250506020610f2f85828601610ee4565b9150509250929050565b610f4281610e99565b82525050565b600082825260208201905092915050565b6000610f6482610d48565b610f6e8185610f48565b9350610f7e818560208601610d64565b610f8781610d8e565b840191505092915050565b600060e083016000830151610faa6000860182610f39565b5060208301518482036020860152610fc28282610f59565b91505060408301518482036040860152610fdc8282610f59565b91505060608301518482036060860152610ff68282610f59565b915050608083015161100b6080860182610f39565b5060a083015161101e60a0860182610f39565b5060c083015161103160c0860182610f39565b508091505092915050565b60006040820190506110516000830185610ea3565b81810360208301526110638184610f92565b90509392505050565b61107581610e2e565b82525050565b6000602082019050611090600083018461106c565b92915050565b6000602082840312156110ac576110ab610e04565b5b60006110ba84828501610ee4565b91505092915050565b600060e0820190506110d8600083018a610ea3565b81810360208301526110ea8189610d9f565b905081810360408301526110fe8188610d9f565b905081810360608301526111128187610d9f565b90506111216080830186610ea3565b61112e60a0830185610ea3565b61113b60c0830184610ea3565b98975050505050505050565b600080fd5b600080fd5b7f4e487b7100000000000000000000000000000000000000000000000000000000600052604160045260246000fd5b61118982610d8e565b810181811067ffffffffffffffff821117156111a8576111a7611151565b5b80604052505050565b60006111bb610dfa565b90506111c78282611180565b919050565b600067ffffffffffffffff8211156111e7576111e6611151565b5b6111f082610d8e565b9050602081019050919050565b82818337600083830152505050565b600061121f61121a846111cc565b6111b1565b90508281526020810184848401111561123b5761123a61114c565b5b6112468482856111fd565b509392505050565b600082601f83011261126357611262611147565b5b813561127384826020860161120c565b91505092915050565b600080600080600080600060e0888a03121561129b5761129a610e04565b5b60006112a98a828b01610ee4565b975050602088013567ffffffffffffffff8111156112ca576112c9610e09565b5b6112d68a828b0161124e565b965050604088013567ffffffffffffffff8111156112f7576112f6610e09565b5b6113038a828b0161124e565b955050606088013567ffffffffffffffff81111561132457611323610e09565b5b6113308a828b0161124e565b94505060806113418a828b01610ee4565b93505060a06113528a828b01610ee4565b92505060c06113638a828b01610ee4565b91505092959891949750929550565b7f4e487b7100000000000000000000000000000000000000000000000000000000600052602260045260246000fd5b600060028204905060018216806113b957607f821691505b6020821081036113cc576113cb611372565b5b50919050565b600081905092915050565b50565b60006113ed6000836113d2565b91506113f8826113dd565b600082019050919050565b600061140e826113e0565b9150819050919050565b7f4e487b7100000000000000000000000000000000000000000000000000000000600052601160045260246000fd5b600061145282610e99565b91507fffffffffffffffffffffffffffffffffffffffffffffffffffffffffffffffff820361148457611483611418565b5b600182019050919050565b60008190508160005260206000209050919050565b60006020601f8301049050919050565b600082821b905092915050565b6000600883026114f17fffffffffffffffffffffffffffffffffffffffffffffffffffffffffffffffff826114b4565b6114fb86836114b4565b95508019841693508086168417925050509392505050565b6000819050919050565b600061153861153361152e84610e99565b611513565b610e99565b9050919050565b6000819050919050565b6115528361151d565b61156661155e8261153f565b8484546114c1565b825550505050565b600090565b61157b61156e565b611586818484611549565b505050565b5b818110156115aa5761159f600082611573565b60018101905061158c565b5050565b601f8211156115ef576115c08161148f565b6115c9846114a4565b810160208510156115d8578190505b6115ec6115e4856114a4565b83018261158b565b50505b505050565b600082821c905092915050565b6000611612600019846008026115f4565b1980831691505092915050565b600061162b8383611601565b9150826002028217905092915050565b61164482610d48565b67ffffffffffffffff81111561165d5761165c611151565b5b61166782546113a1565b6116728282856115ae565b600060209050601f8311600181146116a55760008415611693578287015190505b61169d858261161f565b865550611705565b601f1984166116b38661148f565b60005b828110156116db578489015182556001820191506020850194506020810190506116b6565b868310156116f857848901516116f4601f891682611601565b8355505b6001600288020188555050505b505050505050565b600061171882610e99565b915061172383610e99565b925082820390508181111561173b5761173a611418565b5b92915050565b6000606082019050611756600083018661106c565b6117636020830185610ea3565b6117706040830184610ea3565b949350505050565b600060608201905081810360008301526117928186610d9f565b90506117a16020830185610ea3565b6117ae6040830184610ea3565b94935050505056fea26469706673582212206e173d09f76f1ee0f3cde25e1de9e2d26c152f26faf974b8f744c627eaa6231164736f6c634300081c0033",
  "linkReferences": {},
  "deployedLinkReferences": {}
}