{
  "_format": "hh-sol-artifact-1",
  "contractName": "Dappazon",
  "sourceName": "contracts/Dappazon.sol",
  "abi": [
    {
      "inputs": [],
      "stateMutability": "nonpayable",
      "type": "constructor"
    },
    {
      "anonymous": false,
      "inputs": [
        {
          "indexed": false,
          "internalType": "address",
          "name": "buyer",
          "type": "address"
        },
        {
          "indexed": false,
          "internalType": "uint256",
          "name": "orderId",
          "type": "uint256"
        },
        {
          "indexed": false,
          "internalType": "uint256",
          "name": "itemId",
          "type": "uint256"
        }
      ],
      "name": "Buy",
      "type": "event"
    },
    {
      "anonymous": false,
      "inputs": [
        {
          "indexed": false,
          "internalType": "string",
          "name": "name",
          "type": "string"
        },
        {
          "indexed": false,
          "internalType": "uint256",
          "name": "cost",
          "type": "uint256"
        },
        {
          "indexed": false,
          "internalType": "uint256",
          "name": "quantity",
          "type": "uint256"
        }
      ],
      "name": "List",
      "type": "event"
    },
    {
      "inputs": [
        {
          "internalType": "uint256",
          "name": "_id",
          "type": "uint256"
        }
      ],
      "name": "buy",
      "outputs": [],
      "stateMutability": "payable",
      "type": "function"
    },
    {
      "inputs": [],
      "name": "id",
      "outputs": [
        {
          "internalType": "uint256",
          "name": "",
          "type": "uint256"
        }
      ],
      "stateMutability": "view",
      "type": "function"
    },
    {
      "inputs": [
        {
          "internalType": "uint256",
          "name": "",
          "type": "uint256"
        }
      ],
      "name": "items",
      "outputs": [
        {
          "internalType": "uint256",
          "name": "id",
          "type": "uint256"
        },
        {
          "internalType": "string",
          "name": "name",
          "type": "string"
        },
        {
          "internalType": "string",
          "name": "category",
          "type": "string"
        },
        {
          "internalType": "string",
          "name": "image",
          "type": "string"
        },
        {
          "internalType": "uint256",
          "name": "rating",
          "type": "uint256"
        },
        {
          "internalType": "uint256",
          "name": "price",
          "type": "uint256"
        },
        {
          "internalType": "uint256",
          "name": "stock",
          "type": "uint256"
        }
      ],
      "stateMutability": "view",
      "type": "function"
    },
    {
      "inputs": [
        {
          "internalType": "string",
          "name": "_name",
          "type": "string"
        },
        {
          "internalType": "string",
          "name": "_category",
          "type": "string"
        },
        {
          "internalType": "string",
          "name": "_image",
          "type": "string"
        },
        {
          "internalType": "uint256",
          "name": "_rating",
          "type": "uint256"
        },
        {
          "internalType": "uint256",
          "name": "_price",
          "type": "uint256"
        },
        {
          "internalType": "uint256",
          "name": "_stock",
          "type": "uint256"
        }
      ],
      "name": "list",
      "outputs": [],
      "stateMutability": "nonpayable",
      "type": "function"
    },
    {
      "inputs": [],
      "name": "name",
      "outputs": [
        {
          "internalType": "string",
          "name": "",
          "type": "string"
        }
      ],
      "stateMutability": "view",
      "type": "function"
    },
    {
      "inputs": [
        {
          "internalType": "address",
          "name": "",
          "type": "address"
        }
      ],
      "name": "orderCount",
      "outputs": [
        {
          "internalType": "uint256",
          "name": "",
          "type": "uint256"
        }
      ],
      "stateMutability": "view",
      "type": "function"
    },
    {
      "inputs": [
        {
          "internalType": "address",
          "name": "",
          "type": "address"
        },
        {
          "internalType": "uint256",
          "name": "",
          "type": "uint256"
        }
      ],
      "name": "orders",
      "outputs": [
        {
          "internalType": "uint256",
          "name": "time",
          "type": "uint256"
        },
        {
          "components": [
            {
              "internalType": "uint256",
              "name": "id",
              "type": "uint256"
            },
            {
              "internalType": "string",
              "name": "name",
              "type": "string"
            },
            {
              "internalType": "string",
              "name": "category",
              "type": "string"
            },
            {
              "internalType": "string",
              "name": "image",
              "type": "string"
            },
            {
              "internalType": "uint256",
              "name": "rating",
              "type": "uint256"
            },
            {
              "internalType": "uint256",
              "name": "price",
              "type": "uint256"
            },
            {
              "internalType": "uint256",
              "name": "stock",
              "type": "uint256"
            }
          ],
          "internalType": "struct Dappazon.Item",
          "name": "item",
          "type": "tuple"
        }
      ],
      "stateMutability": "view",
      "type": "function"
    },
    {
      "inputs": [],
      "name": "owner",
      "outputs": [
        {
          "internalType": "address",
          "name": "",
          "type": "address"
        }
      ],
      "stateMutability": "view",
      "type": "function"
    },
    {
      "inputs": [],
      "name": "withdraw",
      "outputs": [],
      "stateMutability": "nonpayable",
      "type": "function"
    }
  ],
  "bytecode": "0x608060405234801561001057600080fd5b506040518060400160405280600881526020017f44617070617a6f6e0000000000000000000000000000000000000000000000008152506003908161005591906102ec565b5033600560006101000a81548173ffffffffffffffffffffffffffffffffffffffff021916908373ffffffffffffffffffffffffffffffffffffffff1602179055506103be565b600081519050919050565b7f4e487b7100000000000000000000000000000000000000000000000000000000600052604160045260246000fd5b7f4e487b7100000000000000000000000000000000000000000000000000000000600052602260045260246000fd5b6000600282049050600182168061011d57607f821691505b6020821081036101305761012f6100d6565b5b50919050565b60008190508160005260206000209050919050565b60006020601f8301049050919050565b600082821b905092915050565b6000600883026101987fffffffffffffffffffffffffffffffffffffffffffffffffffffffffffffffff8261015b565b6101a2868361015b565b95508019841693508086168417925050509392505050565b6000819050919050565b6000819050919050565b60006101e96101e46101df846101ba565b6101c4565b6101ba565b9050919050565b6000819050919050565b610203836101ce565b61021761020f826101f0565b848454610168565b825550505050565b600090565b61022c61021f565b6102378184846101fa565b505050565b5b8181101561025b57610250600082610224565b60018101905061023d565b5050565b601f8211156102a05761027181610136565b61027a8461014b565b81016020851015610289578190505b61029d6102958561014b565b83018261023c565b50505b505050565b600082821c905092915050565b60006102c3600019846008026102a5565b1980831691505092915050565b60006102dc83836102b2565b9150826002028217905092915050565b6102f58261009c565b67ffffffffffffffff81111561030e5761030d6100a7565b5b6103188254610105565b61032382828561025f565b600060209050601f8311600181146103565760008415610344578287015190505b61034e85826102d0565b8655506103b6565b601f19841661036486610136565b60005b8281101561038c57848901518255600182019150602085019450602081019050610367565b868310156103a957848901516103a5601f8916826102b2565b8355505b6001600288020188555050505b505050505050565b611864806103cd6000396000f3fe6080604052600436106100865760003560e01c8063793b8c6d11610059578063793b8c6d146101335780638da5cb5b14610171578063af640d0f1461019c578063bfb231d2146101c7578063d96a094a1461020a57610086565b806306fdde031461008b5780633ccfd60b146100b657806343f2192e146100cd578063713d856b146100f6575b600080fd5b34801561009757600080fd5b506100a0610226565b6040516100ad9190610e31565b60405180910390f35b3480156100c257600080fd5b506100cb6102b4565b005b3480156100d957600080fd5b506100f460048036038101906100ef9190610fd2565b6103a9565b005b34801561010257600080fd5b5061011d60048036038101906101189190611111565b61051c565b60405161012a919061114d565b60405180910390f35b34801561013f57600080fd5b5061015a60048036038101906101559190611168565b610534565b6040516101689291906112ab565b60405180910390f35b34801561017d57600080fd5b5061018661074d565b60405161019391906112ea565b60405180910390f35b3480156101a857600080fd5b506101b1610773565b6040516101be919061114d565b60405180910390f35b3480156101d357600080fd5b506101ee60048036038101906101e99190611305565b610779565b6040516102019796959493929190611332565b60405180910390f35b610224600480360381019061021f9190611305565b610953565b005b60038054610233906113e5565b80601f016020809104026020016040519081016040528092919081815260200182805461025f906113e5565b80156102ac5780601f10610281576101008083540402835291602001916102ac565b820191906000526020600020905b81548152906001019060200180831161028f57829003601f168201915b505050505081565b600560009054906101000a900473ffffffffffffffffffffffffffffffffffffffff1673ffffffffffffffffffffffffffffffffffffffff163373ffffffffffffffffffffffffffffffffffffffff161461030e57600080fd5b6000600560009054906101000a900473ffffffffffffffffffffffffffffffffffffffff1673ffffffffffffffffffffffffffffffffffffffff164760405161035690611447565b60006040518083038185875af1925050503d8060008114610393576040519150601f19603f3d011682016040523d82523d6000602084013e610398565b606091505b50509050806103a657600080fd5b50565b600560009054906101000a900473ffffffffffffffffffffffffffffffffffffffff1673ffffffffffffffffffffffffffffffffffffffff163373ffffffffffffffffffffffffffffffffffffffff161461040357600080fd5b600160046000828254610416919061148b565b9250508190555060006040518060e00160405280600454815260200188815260200187815260200186815260200185815260200184815260200183815250905080600080600454815260200190815260200160002060008201518160000155602082015181600101908161048a919061166b565b5060408201518160020190816104a0919061166b565b5060608201518160030190816104b6919061166b565b506080820151816004015560a0820151816005015560c082015181600601559050507ffdbe2a012c10ec01592653978eaa09b5ca60b143a0e617505b2ebcbd911ec5b887848460405161050b9392919061173d565b60405180910390a150505050505050565b60016020528060005260406000206000915090505481565b600260205281600052604060002060205280600052604060002060009150915050806000015490806001016040518060e001604052908160008201548152602001600182018054610584906113e5565b80601f01602080910402602001604051908101604052809291908181526020018280546105b0906113e5565b80156105fd5780601f106105d2576101008083540402835291602001916105fd565b820191906000526020600020905b8154815290600101906020018083116105e057829003601f168201915b50505050508152602001600282018054610616906113e5565b80601f0160208091040260200160405190810160405280929190818152602001828054610642906113e5565b801561068f5780601f106106645761010080835404028352916020019161068f565b820191906000526020600020905b81548152906001019060200180831161067257829003601f168201915b505050505081526020016003820180546106a8906113e5565b80601f01602080910402602001604051908101604052809291908181526020018280546106d4906113e5565b80156107215780601f106106f657610100808354040283529160200191610721565b820191906000526020600020905b81548152906001019060200180831161070457829003601f168201915b505050505081526020016004820154815260200160058201548152602001600682015481525050905082565b600560009054906101000a900473ffffffffffffffffffffffffffffffffffffffff1681565b60045481565b60006020528060005260406000206000915090508060000154908060010180546107a2906113e5565b80601f01602080910402602001604051908101604052809291908181526020018280546107ce906113e5565b801561081b5780601f106107f05761010080835404028352916020019161081b565b820191906000526020600020905b8154815290600101906020018083116107fe57829003601f168201915b505050505090806002018054610830906113e5565b80601f016020809104026020016040519081016040528092919081815260200182805461085c906113e5565b80156108a95780601f1061087e576101008083540402835291602001916108a9565b820191906000526020600020905b81548152906001019060200180831161088c57829003601f168201915b5050505050908060030180546108be906113e5565b80601f01602080910402602001604051908101604052809291908181526020018280546108ea906113e5565b80156109375780601f1061090c57610100808354040283529160200191610937565b820191906000526020600020905b81548152906001019060200180831161091a57829003601f168201915b5050505050908060040154908060050154908060060154905087565b60008060008381526020019081526020016000206040518060e00160405290816000820154815260200160018201805461098c906113e5565b80601f01602080910402602001604051908101604052809291908181526020018280546109b8906113e5565b8015610a055780601f106109da57610100808354040283529160200191610a05565b820191906000526020600020905b8154815290600101906020018083116109e857829003601f168201915b50505050508152602001600282018054610a1e906113e5565b80601f0160208091040260200160405190810160405280929190818152602001828054610a4a906113e5565b8015610a975780601f10610a6c57610100808354040283529160200191610a97565b820191906000526020600020905b815481529060010190602001808311610a7a57829003601f168201915b50505050508152602001600382018054610ab0906113e5565b80601f0160208091040260200160405190810160405280929190818152602001828054610adc906113e5565b8015610b295780601f10610afe57610100808354040283529160200191610b29565b820191906000526020600020905b815481529060010190602001808311610b0c57829003601f168201915b50505050508152602001600482015481526020016005820154815260200160068201548152505090508060a00151341015610b6357600080fd5b60008160c0015111610b7457600080fd5b60006040518060400160405280428152602001838152509050600160003373ffffffffffffffffffffffffffffffffffffffff1673ffffffffffffffffffffffffffffffffffffffff1681526020019081526020016000206000815480929190610bdd9061177b565b919050555080600260003373ffffffffffffffffffffffffffffffffffffffff1673ffffffffffffffffffffffffffffffffffffffff1681526020019081526020016000206000600160003373ffffffffffffffffffffffffffffffffffffffff1673ffffffffffffffffffffffffffffffffffffffff16815260200190815260200160002054815260200190815260200160002060008201518160000155602082015181600101600082015181600001556020820151816001019081610ca4919061166b565b506040820151816002019081610cba919061166b565b506060820151816003019081610cd0919061166b565b506080820151816004015560a0820151816005015560c08201518160060155505090505060018260c00151610d0591906117c3565b600080858152602001908152602001600020600601819055507f1cbc5ab135991bd2b6a4b034a04aa2aa086dac1371cb9b16b8b5e2ed6b036bed33600160003373ffffffffffffffffffffffffffffffffffffffff1673ffffffffffffffffffffffffffffffffffffffff168152602001908152602001600020548460000151604051610d94939291906117f7565b60405180910390a1505050565b600081519050919050565b600082825260208201905092915050565b60005b83811015610ddb578082015181840152602081019050610dc0565b60008484015250505050565b6000601f19601f8301169050919050565b6000610e0382610da1565b610e0d8185610dac565b9350610e1d818560208601610dbd565b610e2681610de7565b840191505092915050565b60006020820190508181036000830152610e4b8184610df8565b905092915050565b6000604051905090565b600080fd5b600080fd5b600080fd5b600080fd5b7f4e487b7100000000000000000000000000000000000000000000000000000000600052604160045260246000fd5b610ea982610de7565b810181811067ffffffffffffffff82111715610ec857610ec7610e71565b5b80604052505050565b6000610edb610e53565b9050610ee78282610ea0565b919050565b600067ffffffffffffffff821115610f0757610f06610e71565b5b610f1082610de7565b9050602081019050919050565b82818337600083830152505050565b6000610f3f610f3a84610eec565b610ed1565b905082815260208101848484011115610f5b57610f5a610e6c565b5b610f66848285610f1d565b509392505050565b600082601f830112610f8357610f82610e67565b5b8135610f93848260208601610f2c565b91505092915050565b6000819050919050565b610faf81610f9c565b8114610fba57600080fd5b50565b600081359050610fcc81610fa6565b92915050565b60008060008060008060c08789031215610fef57610fee610e5d565b5b600087013567ffffffffffffffff81111561100d5761100c610e62565b5b61101989828a01610f6e565b965050602087013567ffffffffffffffff81111561103a57611039610e62565b5b61104689828a01610f6e565b955050604087013567ffffffffffffffff81111561106757611066610e62565b5b61107389828a01610f6e565b945050606061108489828a01610fbd565b935050608061109589828a01610fbd565b92505060a06110a689828a01610fbd565b9150509295509295509295565b600073ffffffffffffffffffffffffffffffffffffffff82169050919050565b60006110de826110b3565b9050919050565b6110ee816110d3565b81146110f957600080fd5b50565b60008135905061110b816110e5565b92915050565b60006020828403121561112757611126610e5d565b5b6000611135848285016110fc565b91505092915050565b61114781610f9c565b82525050565b6000602082019050611162600083018461113e565b92915050565b6000806040838503121561117f5761117e610e5d565b5b600061118d858286016110fc565b925050602061119e85828601610fbd565b9150509250929050565b6111b181610f9c565b82525050565b600082825260208201905092915050565b60006111d382610da1565b6111dd81856111b7565b93506111ed818560208601610dbd565b6111f681610de7565b840191505092915050565b600060e08301600083015161121960008601826111a8565b506020830151848203602086015261123182826111c8565b9150506040830151848203604086015261124b82826111c8565b9150506060830151848203606086015261126582826111c8565b915050608083015161127a60808601826111a8565b5060a083015161128d60a08601826111a8565b5060c08301516112a060c08601826111a8565b508091505092915050565b60006040820190506112c0600083018561113e565b81810360208301526112d28184611201565b90509392505050565b6112e4816110d3565b82525050565b60006020820190506112ff60008301846112db565b92915050565b60006020828403121561131b5761131a610e5d565b5b600061132984828501610fbd565b91505092915050565b600060e082019050611347600083018a61113e565b81810360208301526113598189610df8565b9050818103604083015261136d8188610df8565b905081810360608301526113818187610df8565b9050611390608083018661113e565b61139d60a083018561113e565b6113aa60c083018461113e565b98975050505050505050565b7f4e487b7100000000000000000000000000000000000000000000000000000000600052602260045260246000fd5b600060028204905060018216806113fd57607f821691505b6020821081036114105761140f6113b6565b5b50919050565b600081905092915050565b50565b6000611431600083611416565b915061143c82611421565b600082019050919050565b600061145282611424565b9150819050919050565b7f4e487b7100000000000000000000000000000000000000000000000000000000600052601160045260246000fd5b600061149682610f9c565b91506114a183610f9c565b92508282019050808211156114b9576114b861145c565b5b92915050565b60008190508160005260206000209050919050565b60006020601f8301049050919050565b600082821b905092915050565b6000600883026115217fffffffffffffffffffffffffffffffffffffffffffffffffffffffffffffffff826114e4565b61152b86836114e4565b95508019841693508086168417925050509392505050565b6000819050919050565b600061156861156361155e84610f9c565b611543565b610f9c565b9050919050565b6000819050919050565b6115828361154d565b61159661158e8261156f565b8484546114f1565b825550505050565b600090565b6115ab61159e565b6115b6818484611579565b505050565b5b818110156115da576115cf6000826115a3565b6001810190506115bc565b5050565b601f82111561161f576115f0816114bf565b6115f9846114d4565b81016020851015611608578190505b61161c611614856114d4565b8301826115bb565b50505b505050565b600082821c905092915050565b600061164260001984600802611624565b1980831691505092915050565b600061165b8383611631565b9150826002028217905092915050565b61167482610da1565b67ffffffffffffffff81111561168d5761168c610e71565b5b61169782546113e5565b6116a28282856115de565b600060209050601f8311600181146116d557600084156116c3578287015190505b6116cd858261164f565b865550611735565b601f1984166116e3866114bf565b60005b8281101561170b578489015182556001820191506020850194506020810190506116e6565b868310156117285784890151611724601f891682611631565b8355505b6001600288020188555050505b505050505050565b600060608201905081810360008301526117578186610df8565b9050611766602083018561113e565b611773604083018461113e565b949350505050565b600061178682610f9c565b91507fffffffffffffffffffffffffffffffffffffffffffffffffffffffffffffffff82036117b8576117b761145c565b5b600182019050919050565b60006117ce82610f9c565b91506117d983610f9c565b92508282039050818111156117f1576117f061145c565b5b92915050565b600060608201905061180c60008301866112db565b611819602083018561113e565b611826604083018461113e565b94935050505056fea264697066735822122020cb9adbf9daa451ff9bd262c79196e3ad3a4adb41ddf523ca53d87178f078c564736f6c634300081c0033",
  "linkReferences": {},
  "deployedLinkReferences": {}
}